:020000006E2967
:1000060083120313F801F9011030FC00710DF80D8D
:10001600F90D7408F8027508031C750FF902031828
:100026001B287408F80775080318750FF9070310DD
:0A003600F00DF10DFC0B0928080085
:100040000E3083120313FD00FD0B2428000008006E
:100050008316031398182E280000282883124508B9
:0400600099000800FB
:1000640083120313C80105304802031840284808C6
:100074004707840020308000C80A3528480847070D
:1000840084008001C80348084707C9000A30F40007
:10009400F5014508F0004608F10003207808F00057
:1000A4007908F1003030F0074908840070088000B6
:1000B4000A30F400F5014508F0004608F100032079
:1000C4007008C5007108C60000307106031D6C2855
:1000D40000307006031D6F287128C80345280800E6
:0E00E4008312031332088A00310882000800DC
:1000F200831603139816903083129800831687177D
:10010200071383128C1E88281A08F0008228080020
:10011200831203139F01C0309F042F09F00070085F
:1001220083169F051F179F1783123C08F000F00DDE
:100132007010F00D7010F00D701070089F041F14F5
:1001420020201F151F1DA7280000A3281F101E080E
:10015200F100F00183161E08F0040030F1040800DB
:10016200FF3083120313B900FF30BA00FF30BB0027
:10017200FF309F01C0309F042F09F00070088316E2
:0C0182009F051F179F1783121F14080011
:10018E00831203133C08F2007208F100F20A3D08D4
:10019E00F000BD0A700884000008F00071088400A9
:1001AE00700880007108840000080319DF28CB282E
:0601BE003C08F0000800FF
:1001C40083120313BE013C0884000008BD003D08EF
:1001D400003A0319F7283D08C5002820BE0A3E0846
:0C01E4003C0784000008BD00E92808006A
:1001F00083120313C101C2013C08C3003D08C400BF
:1002000080303D06F00080307002031D0929003067
:100210003C02031817290130C1000030C2003C081D
:10022000003CC3003D08031C013EC401C402430856
:10023000C5004408C6003E08C70032200630BF0093
:100240000030C0004008003C031D28293F08003C46
:10025000031843293F083E07F20001303F02F00037
:100260000030031C013E4002F10070083E0784008C
:100270000008F00072088400700880000130BF029E
:10028000031CC00322293E0884002030800041085E
:10029000420403196129BF01C0013F083E078400E1
:1002A0000008203A031D5829BF0A0319C00A4D2926
:1002B0000130BF02031CC0033F083E0784002D30FD
:0402C00080000800B2
:1002C40072208A110A128000840AB10A0319B20A40
:0802D400F003031D622908007C
:1002DC00B821333083160313990018157920B120F7
:1002EC00BC01892070088312B3007108B400700837
:1002FC00BC007108BD003530BE00F8202030BC00B9
:10030C00E2203530BC00E2203530BC003030BD007E
:10031C00C7200D30C50028200B30FB002630FC0018
:10032C005D30FD00FD0B9829FC0B9829FB0B9829DF
:08033C00000000007629A12950
:1003700020308400113083120313F000A730B10045
:080380000130B2006221080007
:10034E0041346E3461346C346F3467342034563437
:0E035E0061346C34753465343D342034003421
:02036C000F344C
:02036E00003459
:02400E004A2F37
:00000001FF
