:020000001628C0
:0E000600831203132B088A002A0882000800C8
:1000140003208A110A128000840AAA0A0319AB0A6F
:08002400F003031D0A28080087
:10002C00403083120313A0007930A1002430A200C9
:10003C003030A3001930A4001230A5000230A60005
:10004C007830A700A8011030A900AC01AD018316CF
:10005C008601FF308312860080302D06F000803040
:10006C007002031D3B280A302C0203185E282C0852
:10007C00203E8400000886000B30FB002630FC007C
:10008C005D30FD00FD0B4828FC0B4828FB0B482875
:10009C0000000000AC0A0319AD0A00302D06031D48
:1000AC0059280A302C06031D5D28AC01AD013228FD
:0200BC005E28BC
:02400E004A2F37
:00000001FF
