:020000001628C0
:0E000600831203132B088A002A0882000800C8
:1000140003208A110A128000840AAA0A0319AB0A6F
:08002400F003031D0A28080087
:10002C00403083120313A0007930A1002430A200C9
:10003C003030A3001930A4001230A5000230A60005
:10004C007830A700A8011030A900AC01AD018316CF
:10005C008601FF308800FF30831286002C08203E7A
:10006C0084000008860008184C280330FB00083078
:10007C00FC007730FD00FD0B4128FC0B4128FB0BED
:10008C00412808184C28AC0A0319AD0A88186028B6
:10009C000330FB000830FC007730FD00FD0B5428CA
:1000AC00FC0B5428FB0B5428881860280130AC0238
:1000BC00031CAD038030F00080302D067002031D50
:1000CC0069282C08093C031C772880302D06F00089
:1000DC0080307002031D742800302C02031C77281A
:0A00EC007928AC01AD0134287A2810
:02400E004A2F37
:00000001FF
