:020000000329D2
:0E000600213083120313FD00FD0B07280800B4
:100014000F3083120313FC004730FD00FD0B102842
:0A002400FC0B10280000000008008B
:06002E00000000000800C4
:1000340083120313E71B2028861221288616671BC8
:100044002528061226280616E71A2A2886112B28A0
:100054008615671A2F280611302806155E183428CD
:10006400061435280610861417208610E7193C2834
:1000740086123D288616671941280612422806165C
:10008400E718462886114728861567184B28061155
:100094004C2806155E18502806145128061086149C
:1000A400172086105E1C58280A20592803200800AF
:0E00B4008312031361088A00600882000800AE
:1000C200831203135E106608E7001A205E1408000C
:1000D2008316031386100610061186110612861265
:1000E20083128610061086120612861106110A2045
:1000F2000A200A20861506158614172086100A2063
:100102008614172086100A208614172086100A20CB
:1001120006118614172086100A20861417208610CE
:10012200861186168614172086100A208612061556
:1001320086141720861006118614172086100A20AE
:1001420086141720861006158614172086100A209A
:1001520006118614172086108616061686150615B1
:0C0162008614172086100A205E14080086
:10016E00C928803083120313E200DC28C030E2007D
:10017E00DC289430E200DC28D430E200DC28803029
:10018E00E200DC28831203136208013A0319B8282F
:10019E006208023A0319BD286208033A0319C028FF
:1001AE006208043A0319C328C6286303F0006208E4
:1001BE00F0077008E2007008E7001A205E10E501F3
:1001CE0065086407840000080319F52865086407AC
:1001DE0084000008E6006120E50AE7285E140800A6
:1001EE005A208A110A128000840AE00A0319E10AD1
:0801FE00F003031DF7280800BF
:1002060092210630831603139F0007309C00692055
:100216000130E7001A200130E2000130E3003F30F0
:10022600E400B7200230E2000130E3002030E400B1
:10023600B7200C30E7001A20DF011E305F020318DA
:1002460035291C30E7001A200830FB001B30FC0063
:100256002730FD00FD0B2D29FC0B2D29FB0B2D292D
:10026600DF0A2029DF011E305F0203184D291830EE
:10027600E7001A200630FB001330FC00AD30FD000D
:10028600FD0B4329FC0B4329FB0B4329000000000F
:08029600DF0A36291F294E2959
:10032400203084003E3083120313F0005430E00088
:080334000130E100F720080090
:1002A8004434653470346134723474346D34653474
:1002B8006E34743420346F34663420344934433413
:1002C80045342C34203450345534533454342C347D
:0E02D80020345034413442344E34413400342A
:1002E6004434653470346134723474346D34653436
:1002F6006E34743420346F346634203449344334D5
:1003060045342C34203450345534533454342C343E
:0E03160020345034413442344E3441340034EB
:02400E004A2F37
:00000001FF
