:020000001428C2
:1000060083120313F1012208710203181328F20167
:100016001430720203181128F20A0B28F10A062876
:020026000800D0
:100028008316031387018801803083128800C0304B
:1000380087000330FC009730FD00FD0B2128FC0BE6
:100048002128000000000A30A20003204030880068
:10005800C03087000A30A200032020308800C0305A
:1000680087000A30A200032010308800FF30870084
:100078000A30A200032008308800FF3087000A30C9
:10008800A200032004308800C03087000A30A20094
:10009800032002308800C03087000A30A200032005
:1000A80001308800C03087000A30A20003201828D9
:0200B8005C28C2
:02400E004A2F37
:00000001FF
